:100000000C9461000C9473000C9473000C947300B6
:100010000C9473000C9473000C9473000C94730094
:100020000C9473000C9473000C9473000C94730084
:100030000C9473000C9473000C9473000C94730074
:100040000C947E010C9473000C9473000C94730058
:100050000C9473000C9473000C9473000C94730054
:100060000C9473000C94730000000000240027001F
:100070002A0000000000250028002B0000000000DE
:1000800023002600290004040404040404040202DA
:100090000202020203030303030301020408102007
:1000A0004080010204081020010204081020000012
:1000B0000008000201000003040700000000000027
:1000C000000011241FBECFEFD8E0DEBFCDBF21E07E
:1000D000A0E0B1E001C01D92A930B207E1F70E9493
:1000E000C8010C948D020C940000833081F028F438
:1000F000813099F08230A9F008958730A9F08830D6
:10010000C9F08430B1F4809180008F7D03C080916C
:1001100080008F7780938000089584B58F7784BDA9
:10012000089584B58F7DFBCF8091B0008F77809349
:10013000B00008958091B0008F7DF9CF1F93CF93C9
:10014000DF93282F30E0F901E255FF4F8491F90148
:10015000E656FF4FD491F901EA57FF4FC491CC23E3
:10016000A9F0162F81110E947500EC2FF0E0EE0F20
:10017000FF1FEE58FF4FA591B4918FB7F894EC9103
:10018000111108C0D095DE23DC938FBFDF91CF9192
:100190001F910895DE2BF8CFCF93DF9390E0FC0101
:1001A000E656FF4F24918A579F4FFC018491882384
:1001B000D1F090E0880F991FFC01E859FF4FA591FD
:1001C000B491FC01EE58FF4FC591D49161110EC05E
:1001D0009FB7F8948C91E22FE0958E238C93288121
:1001E000E223E8839FBFDF91CF9108958FB7F89402
:1001F000EC91E22BEC938FBFF6CF3FB7F894809150
:10020000050190910601A0910701B091080126B562
:10021000A89B05C02F3F19F00196A11DB11D3FBF3E
:10022000BA2FA92F982F8827BC01CD01620F711D0D
:10023000811D911D42E0660F771F881F991F4A9507
:10024000D1F708958F929F92AF92BF92CF92DF9293
:10025000EF92FF924B015C010E94FD006B017C015B
:100260000E94FD006C197D098E099F09683E73404C
:1002700081059105A8F321E0821A9108A108B1082F
:1002800088EEC80E83E0D81EE11CF11C8114910495
:10029000A104B10429F7FF90EF90DF90CF90BF90B9
:1002A000AF909F908F90089560E085E00E949E003F
:1002B00061E086E00E949E0060E087E00E949E0070
:1002C00060E177E280E090E00E94220161E085E059
:1002D0000E949E0060E086E00E949E0060E087E051
:1002E0000E949E0060E082E00E949E0060E083E049
:1002F0000E949E0061E084E00C949E001F920F9289
:100300000FB60F9211242F933F938F939F93AF9328
:10031000BF938091010190910201A0910301B091DE
:1003200004013091000123E0230F2D3758F5019689
:10033000A11DB11D20930001809301019093020142
:10034000A0930301B09304018091050190910601EF
:10035000A0910701B09108010196A11DB11D8093E4
:10036000050190930601A0930701B0930801BF9186
:10037000AF919F918F913F912F910F900FBE0F9052
:100380001F90189526E8230F0296A11DB11DD2CF0C
:10039000789484B5826084BD84B5816084BD85B560
:1003A000826085BD85B5816085BD80916E0081606C
:1003B00080936E0010928100809181008260809312
:1003C0008100809181008160809381008091800014
:1003D0008160809380008091B10084608093B1003F
:1003E0008091B00081608093B00080917A00846039
:1003F00080937A0080917A00826080937A00809165
:100400007A00816080937A0080917A00806880937E
:100410007A001092C10061E082E00E94CC0061E0AD
:1004200083E00E94CC0061E084E00E94CC0061E0A7
:1004300085E00E94CC0061E086E00E94CC0061E093
:1004400087E00E94CC0061E088E00E94CC0060E080
:1004500089E00E94CC0061E088E00E949E000E943A
:100460005401C7EBD0E003EA10E09FE8E92E90E0EA
:10047000F92E20E0C22E20E0D22EFE018491F80158
:10048000A490F701B490BB2009F440C081110E94F0
:100490007500EB2DF0E0EE0FFF1FE458FF4FA59124
:1004A000B4918C91A82291F160E082E00E949E00BC
:1004B00061E083E00E949E0060E084E00E949E0074
:1004C00060E177E280E090E00E94220161E082E05A
:1004D0000E949E0060E083E00E949E0060E084E055
:1004E0000E949E0060E085E00E949E0060E086E041
:1004F0000E949E0061E087E00E949E0060E67AEE26
:1005000080E090E00E9422010E945401C114D104B5
:0E05100009F4B3CF0E940000B0CFF894FFCFE3
:00000001FF
