:100000000C9463000C948B000C948B000C948B006C
:100010000C948B000C948B000C948B000C948B0034
:100020000C948B000C948B000C948B000C948B0024
:100030000C948B000C948B000C948B000C948B0014
:100040000C9496010C948B000C948B000C948B00F8
:100050000C948B000C948B000C948B000C948B00F4
:100060000C948B000C948B000000000024002700EF
:100070002A0000000000250028002B0000000008D6
:10008000000201000003040700000000000000005F
:1000900000000000230026002900040404040404D6
:1000A0000404020202020202030303030303010227
:1000B00004081020408001020408102001020408F6
:1000C00010209203B50311241FBECFEFD8E0DEBF8E
:1000D000CDBF21E0A6E0B1E001C01D92AE31B20774
:1000E000E1F711E0A0E0B1E0EEE3FCE002C0059032
:1000F0000D92A630B107D9F710E0C2E6D0E004C0F7
:100100002197FE010E94E704C136D107C9F70E947A
:1001100025020C9412060C940000833081F028F420
:10012000813099F08230A9F008958730A9F08830A5
:10013000C9F08430B1F4809180008F7D03C080913C
:1001400080008F7780938000089584B58F7784BD79
:10015000089584B58F7DFBCF8091B0008F77809319
:10016000B00008958091B0008F7DF9CF1F93CF9399
:10017000DF93282F30E0F901E458FF4F8491F90113
:10018000E255FF4FD491F901E656FF4FC491CC23BD
:10019000A9F0162F81110E948D00EC2FF0E0EE0FD8
:1001A000FF1FEE58FF4FA591B4918FB7F894EC91D3
:1001B000111108C0D095DE23DC938FBFDF91CF9162
:1001C0001F910895DE2BF8CFCF93DF9390E0FC01D1
:1001D000E255FF4F249186569F4FFC01849188235E
:1001E000D1F090E0880F991FFC01E859FF4FA591CD
:1001F000B491FC01EE58FF4FC591D49161110EC02E
:100200009FB7F8948C91E22FE0958E238C932881F0
:10021000E223E8839FBFDF91CF9108958FB7F894D1
:10022000EC91E22BEC938FBFF6CF3FB7F89480911F
:10023000070190910801A0910901B0910A0126B52A
:10024000A89B05C02F3F19F00196A11DB11D3FBF0E
:10025000BA2FA92F982F8827BC01CD01620F711DDD
:10026000811D911D42E0660F771F881F991F4A95D7
:10027000D1F708958F929F92AF92BF92CF92DF9263
:10028000EF92FF924B015C010E9415016B017C0112
:100290000E9415016C197D098E099F09683E734003
:1002A00081059105A8F321E0821A9108A108B108FF
:1002B00088EEC80E83E0D81EE11CF11C8114910465
:1002C000A104B10429F7FF90EF90DF90CF90BF9089
:1002D000AF909F908F90089560E085E00E94B600F7
:1002E00061E086E00E94B60060E087E00E94B60010
:1002F00060E177E280E090E00E943A0161E085E011
:100300000E94B60060E086E00E94B60060E087E0F0
:100310000E94B60060E082E00E94B60060E083E0E8
:100320000E94B60061E084E00C94B6001F920F9228
:100330000FB60F9211242F933F938F939F93AF93F8
:10034000BF9380910B0190910C01A0910D01B09190
:100350000E013091060123E0230F2D3758F5019649
:10036000A11DB11D2093060180930B0190930C01F8
:10037000A0930D01B0930E018091070190910801A7
:10038000A0910901B0910A010196A11DB11D8093B0
:10039000070190930801A0930901B0930A01BF914E
:1003A000AF919F918F913F912F910F900FBE0F9022
:1003B0001F90189526E8230F0296A11DB11DD2CFDC
:1003C000CF92DF92EF92FF920F931F93E82FF92FB6
:1003D00005C0015011092109310961F1908196236D
:1003E0009417B9F305C0015011092109310911F120
:1003F000908196239413F7CFC12CD12CE12CF12CB2
:100400000AC08FEFC81AD80AE80AF80A0C151D05A9
:100410002E053F0579F080818623841791F36C2D9A
:100420007D2D8E2D9F2D1F910F91FF90EF90DF90CE
:10043000CF90089560E070E080E090E01F910F9110
:10044000FF90EF90DF90CF900895789484B582600C
:1004500084BD84B5816084BD85B5826085BD85B568
:10046000816085BD80916E00816080936E001092E6
:100470008100809181008260809381008091810061
:1004800081608093810080918000816080938000F2
:100490008091B10084608093B1008091B000816050
:1004A0008093B00080917A00846080937A0080917C
:1004B0007A00826080937A0080917A0081608093D4
:1004C0007A0080917A00806880937A001092C1004F
:1004D00061E08DE00E94E40061E082E00E94E400BF
:1004E00061E083E00E94E40061E084E00E94E400B7
:1004F00061E085E00E94E40061E086E00E94E400A3
:1005000061E087E00E94E40060E088E00E94E4008F
:100510000E946C0124E8622E20E0722EC6EBD0E02F
:1005200032EAE32E30E0F32E43E0A42EB12C53E266
:10053000852E912C60E0C62E60E0D62EF3018491CA
:10054000FE011491F7010491002309F48EC081117A
:100550000E948D00E02FF0E0EE0FFF1FE057FF4FED
:10056000A591B4918C91182309F47FC061E08DE0CE
:100570000E94B60060E0809114010E94B600C5019F
:100580000197F1F761E0809114010E94B600C40167
:100590000197F1F760E0809114010E94B600F89491
:1005A000E0911601F0911701808191819927FC015A
:1005B000E255FF4F6491FC01E656FF4FE491F0E0F5
:1005C000EE0FFF1FE057FF4F8591949109EE1BE559
:1005D00020E030E0462F0E94E001611571058105A1
:1005E000910509F07FC078940E94350424E43BE42F
:1005F0004BE652E40E94C30320E030E048EC52E4B2
:100600000E94BE0387FF8BC060E08DE00E94B600B1
:1006100064E670E080E090E00E943A0161E08DE0E5
:100620000E94B60080911301882309F461C02FB79E
:10063000F89480910B0190910C01A0910D01B09163
:100640000E012FBF40910F015091100160911101D7
:1006500070911201841B950BA60BB70B893893413F
:10066000A105B105C4F11092130160E08DE00E9474
:10067000B60060E082E00E94B60061E083E00E9484
:10068000B60060E084E00E94B60060E177E280E0BE
:1006900090E00E943A0161E082E00E94B60060E0D2
:1006A00083E00E94B60060E084E00E94B60060E053
:1006B00085E00E94B60060E086E00E94B60061E03E
:1006C00087E00E94B60060E67AEE80E090E00E944B
:1006D0003A010E946C01C114D10409F42FCF0E9489
:1006E00000002CCF6F5F7F4F8F4F9F4F9F707BCF4E
:1006F00081E0809313012FB7F89480910B019091C2
:100700000C01A0910D01B0910E012FBF80930F013C
:1007100090931001A0931101B0931201DCCF1092BD
:100720001301D9CFCF93DF9382E090E00E94ED04D4
:1007300029E030E0FC0131832083C4E1D1E02AE0EC
:1007400030E0398328839B838A8381E090E09D8316
:100750008C8361E08AE00E94E400EA81FB8160E032
:100760008081DF91CF910C94E400809116019091EB
:100770001701009711F00C94890508950E947204E6
:1007800008F481E008950E94D7030C94AD040E9400
:10079000A60458F00E949F0440F029F45F3F29F01E
:1007A0000C94960451110C94E1040C949C040E9446
:1007B000BE0468F39923B1F3552391F3951B550BB0
:1007C000BB27AA2762177307840738F09F5F5F4F24
:1007D000220F331F441FAA1FA9F335D00E2E3AF063
:1007E000E0E832D091505040E695001CCAF72BD07B
:1007F000FE2F29D0660F771F881FBB1F26173707CC
:100800004807AB07B0E809F0BB0B802DBF01FF27FD
:1008100093585F4F3AF09E3F510578F00C94960440
:100820000C94E1045F3FE4F3983ED4F3869577950A
:100830006795B795F7959F5FC9F7880F911D9695B6
:10084000879597F90895E1E0660F771F881FBB1F12
:10085000621773078407BA0720F0621B730B840BBF
:10086000BA0BEE1F88F7E0950895E89409C097FB4E
:100870003EF490958095709561957F4F8F4F9F4F77
:100880009923A9F0F92F96E9BB279395F6958795BB
:1008900077956795B795F111F8CFFAF4BB0F11F47E
:1008A00060FF1BC06F5F7F4F8F4F9F4F16C0882325
:1008B00011F096E911C0772321F09EE8872F762F5B
:1008C00005C0662371F096E8862F70E060E02AF09C
:1008D0009A95660F771F881FDAF7880F9695879588
:1008E00097F90895990F0008550FAA0BE0E8FEEF5D
:1008F00016161706E807F907C0F012161306E407E4
:10090000F50798F0621B730B840B950B39F40A26DC
:1009100061F0232B242B252B21F408950A2609F4BA
:10092000A140A6958FEF811D811D089597F99F67BE
:1009300080E870E060E008959FEF80EC0895002467
:100940000A941616170618060906089500240A9434
:1009500012161306140605060895092E0394000CBA
:1009600011F4882352F0BB0F40F4BF2B11F460FF49
:1009700004C06F5F7F4F8F4F9F4F089557FD905872
:10098000440F551F59F05F3F71F04795880F97FB53
:10099000991F61F09F3F79F087950895121613060D
:1009A0001406551FF2CF4695F1DF08C0161617063C
:1009B0001806991FF1CF8695710561050894089571
:1009C000E894BB2766277727CB0197F90895EE0FA8
:1009D000FF1F0590F491E02D09940F931F93CF937F
:1009E000DF938230910510F482E090E0E0911C01E9
:1009F000F0911D0130E020E0B0E0A0E0309799F4E4
:100A00002115310509F44AC0281B390B2430310562
:100A1000D8F58A819B816115710589F1FB0193836A
:100A20008283FE0111C040815181028113814817E8
:100A30005907E0F04817590799F4109761F012969A
:100A40000C93129713961C933296CF01DF91CF919E
:100A50001F910F91089500931C0110931D01F4CF75
:100A60002115310551F04217530738F0A901DB0178
:100A70009A01BD01DF01F801C1CFEF01F9CF9093D9
:100A80001D0180931C01CDCFFE01E20FF31F819366
:100A900091932250310939832883D7CF20911A01AD
:100AA00030911B01232B41F420910201309103016D
:100AB00030931B0120931A01209100013091010114
:100AC0002115310541F42DB73EB7409104015091F5
:100AD0000501241B350BE0911A01F0911B01E2176F
:100AE000F307A0F42E1B3F0B2817390778F0AC0151
:100AF0004E5F5F4F2417350748F04E0F5F1F50932E
:100B00001B0140931A01819391939FCFF0E0E0E0A5
:100B10009CCFCF93DF930097E9F0FC0132971382CB
:100B20001282A0911C01B0911D01ED0130E020E086
:100B30001097A1F420813181820F931F20911A0117
:100B400030911B012817390709F061C0F0931B0190
:100B5000E0931A01DF91CF910895EA01CE17DF07E4
:100B6000E8F54A815B819E0141155105B1F7E90124
:100B7000FB83EA8349915991C40FD51FEC17FD07F8
:100B800061F4808191810296840F951FE901998318
:100B90008883828193819B838A83F0E0E0E01296D0
:100BA0008D919C9113970097B9F52D913C911197D8
:100BB000CD010296820F931F20911A0130911B01E3
:100BC0002817390739F6309751F510921D01109208
:100BD0001C01B0931B01A0931A01BCCFD383C28325
:100BE00040815181840F951FC817D90761F44E5F6A
:100BF0005F4F88819981480F591F518340838A81B3
:100C00009B81938382832115310509F0B0CFF09346
:100C10001D01E0931C019ECFFD01DC01C0CF1382BA
:100C20001282D7CF10E0C2E6D0E004C0FE010E94DD
:0E0C3000E7042196C336D107C9F7F894FFCF29
:060C3E0000001E01800011
:00000001FF
