:100000000C9463000C948B000C948B000C948B006C
:100010000C948B000C948B000C948B000C948B0034
:100020000C948B000C948B000C948B000C948B0024
:100030000C948B000C948B000C948B000C948B0014
:100040000C949D060C948B000C946B060C94450646
:100050000C948B000C948B000C948B000C948B00F4
:100060000C948B000C948B000000000023002600F1
:10007000290000000000240027002A0000000000E2
:10008000250028002B0004040404040404040202D4
:100090000202020203030303030301020408102007
:1000A0004080010204081020010204081020000012
:1000B0000008000201000003040700000000000027
:1000C0000000E706CB0811241FBECFEFD8E0DEBF4B
:1000D000CDBF22E0AAE5B1E001C01D92AD32B2076A
:1000E000E1F711E0A0E0B1E0E4E1FFE102C005903A
:1000F0000D92AA35B107D9F710E0C2E6D0E004C0EE
:100100002197FE010E94CE0AC136D107C9F70E948D
:1001100040070C947D0F0C940000AF92BF92CF92D9
:10012000DF92EF92FF920F931F93CF93DF936C01B7
:100130007B018B01040F151FEB015E01AE18BF0898
:10014000C017D10759F06991D601ED91FC9101904A
:10015000F081E02DC6010995892B79F7C501DF9162
:10016000CF911F910F91FF90EF90DF90CF90BF90B4
:10017000AF900895FC01538D448D252F30E0842FDE
:1001800090E0821B930B541710F0CF9608950197BF
:100190000895FC01918D828D981761F0A28DAE0FAC
:1001A000BF2FB11D5D968C91928D9F5F9F73928F33
:1001B00090E008958FEF9FEF0895FC01918D828D5F
:1001C000981731F0828DE80FF11D858D90E008952C
:1001D0008FEF9FEF0895FC01918D228D892F90E084
:1001E000805C9F4F821B91098F739927089583E646
:1001F00091E00E94EB0021E0892B09F420E0822F9E
:100200000895FC01A48DA80FB92FB11DA35ABF4FAB
:100210002C91848D90E001968F739927848FA68905
:10022000B7892C93A089B1898C91837080648C9359
:10023000938D848D981306C00288F389E02D808108
:100240008F7D80830895EF92FF920F931F93CF933A
:10025000DF93EC0181E0888F9B8D8C8D98131AC001
:10026000E889F989808185FF15C09FB7F894EE89E8
:10027000FF896083E889F989808183708064808345
:100280009FBF81E090E0DF91CF911F910F91FF9090
:10029000EF900895F62E0B8D10E00F5F1F4F0F7338
:1002A0001127E02E8C8D8E110CC00FB607FCFACFF3
:1002B000E889F989808185FFF5CFCE010E9401018F
:1002C000F1CFEB8DEC0FFD2FF11DE35AFF4FF082C4
:1002D0009FB7F8940B8FEA89FB8980818062CFCF2A
:1002E000CF93DF93EC01888D8823B9F0AA89BB896D
:1002F000E889F9898C9185FD03C0808186FD0DC058
:100300000FB607FCF7CF8C9185FFF2CF808185FF78
:10031000EDCFCE010E940101E9CFDF91CF91089589
:10032000833081F028F4813099F08230A9F008956B
:100330008730A9F08830C9F08430B1F48091800012
:100340008F7D03C0809180008F7780938000089517
:1003500084B58F7784BD089584B58F7DFBCF809160
:10036000B0008F778093B00008958091B0008F7DAA
:10037000F9CF1F93CF93DF93EBEBF0E09491E7EA93
:10038000F0E0D491E3E9F0E0C491CC23B9F0182F68
:10039000992319F0892F0E949001EC2FF0E0EE0FC5
:1003A000FF1FE458FF4FA591B4918FB7F894EC91DB
:1003B000111108C0D095DE23DC938FBFDF91CF9160
:1003C0001F910895DE2BF8CF81E00C94B90180E0F5
:1003D0000C94B901CF93DF93EC01A881B981EB01B3
:1003E000E881F9811097F1F03097B1F4EC018C813C
:1003F0009D81892BC9F08C9190E00BC0DB01149694
:100400008D919C91892B81F0808190E091958195CF
:100410009109DF91CF910895BF01CD01DF91CF9177
:100420000C94BF0C309751F790E080E0F2CF0F931F
:100430001F93CF93DF93EC0188819981009759F046
:100440002A813B812617370730F081E0DF91CF9179
:100450001F910F9108958B016F5F7F4F0E94F90BE1
:10046000009759F0998388831B830A832C813D81EF
:10047000232B59F7FC011082E8CF80E0E7CFEF9201
:10048000FF920F931F93CF93DF936115710541F492
:1004900080E0DF91CF911F910F91FF90EF90089531
:1004A00041155105B1F07B01EC010C811D81040F58
:1004B000151FB8010E941702882351F32881398142
:1004C0008C819D81B701820F931F0E94C80C1D83F0
:1004D0000C8381E0DECFCF93DF9300D0CDB7DEB7C2
:1004E00069831A8241E050E0BE016F5F7F4F0E9436
:1004F0003F020F900F90DF91CF910895CF93DF933C
:10050000EC0188819981009711F00E94700B19828B
:1005100018821D821C821B821A82DF91CF9108955E
:10052000CF93DF93EC01FB014481558160817181A0
:100530000E943F02811103C0CE010E947E02CE01C3
:10054000DF91CF910895EF92FF920F931F93CF9376
:10055000DF93EC017B018A01BA010E94170281112D
:100560000BC0CE010E947E02CE01DF91CF911F9180
:100570000F91FF90EF9008951D830C83B701888140
:1005800099810E94C80CF0CF50E040E066E371E032
:100590000C94A302CF93DF93EC01FB01861797071E
:1005A00049F0608171816115710541F04481558187
:1005B0000E94A302CE01DF91CF9108950E947E0296
:1005C000F9CFFC01118210821382128215821482EB
:1005D0000C94CA02CF93DF93EC010E94E102CE019A
:1005E000DF91CF910895EF92FF920F931F93CF93D6
:1005F000DF93EC017B01198218821B821A821D8213
:100600001C8288E090E00E94D40A8C01B7010E940D
:10061000E102F70186819781F801978386831D8324
:100620000C83DF91CF911F910F91FF90EF90089570
:10063000FC01118210821382128215821482FB0146
:1006400001900020E9F73197AF01461B570B0C943E
:10065000A302FC0180819181009711F00C94700B32
:100660000895AF92BF92CF92DF92EF92FF920F93D5
:100670001F93CF93DF93CDB7DEB72E970FB6F894C5
:10068000DEBF0FBECDBF8C016B0180910102909146
:100690000202D80112969C938E931197D80111965D
:1006A000ED91FC9180910302909104028E179F07B7
:1006B00079F1A0900802B0900902E480F580B701BA
:1006C000CE0101960E94E102F70186819781988709
:1006D0008F83BE016F5F7F4FCE010996F5010995AB
:1006E000B601CE0109960E94EA017C01CE0109966D
:1006F0000E942903CE0101960E942903F7FE08C03B
:10070000D8011196ED91FC91129782819381C2CF0D
:10071000C8012E960FB6F894DEBF0FBECDBFDF9195
:10072000CF911F910F91FF90EF90DF90CF90BF90EE
:10073000AF900895EF92FF920F931F93CF93DF93A3
:10074000CDB7DEB7AA970FB6F894DEBF0FBECDBF08
:100750007C018B01CE0188960E943103E9A5FAA5A0
:10076000D70113968D919C91E817F90739F06481B0
:100770007581C8010E94EA0197FF6BC0B801CE01E4
:1007800041960E94E102188E1F8A00910802109182
:100790000902BE016F5E7F4FCE0101960E94E10209
:1007A0008F89988D98878F83BE016F5F7F4FCE01B1
:1007B0000996F8010995BE01675F7F4FCE018596C6
:1007C0000E943103CE0109960E942903CE010196B1
:1007D0000E942903EEA1FFA18091030290910402DF
:1007E0008E179F0709F06DC0809105029091060257
:1007F000892B09F040C086E090E00E94D40A8C0169
:10080000BE016F5E7F4F0E94F302109302020093BD
:100810000102E0910302F091040211830083D801E8
:1008200011961C921E921396FC93EE93129781E000
:1008300090E09093060280930502E0910302F0910C
:100840000402008111811AA709A7CE0141960E94D6
:100850002903E9A5FAA5848195810696AA960FB683
:10086000F894DEBF0FBECDBFDF91CF911F910F91E6
:10087000FF90EF90089586E090E00E94D40A8C01EA
:10088000BE016F5E7F4F0E94F302E0910302F09180
:10089000040280819181D80111969C938E931396C6
:1008A000FC93EE931297A081B18113961C930E9343
:1008B00012971183008380910502909106020196A0
:1008C000B8CFE0900802F090090204811581B801C8
:1008D000CE0109960E94E102F80186819781988BEA
:1008E0008F87BE01675F7F4FCE014F96F701099555
:1008F0000091080210910902BE016F5E7F4FCE0188
:1009000001960E94E1028F89988D98878F83BE019E
:100910006F5F7F4FCE014996F8010995BE01615E78
:100920007F4FCE0149960E94EA018C01CE01499683
:100930000E942903CE0101960E942903CE014F9601
:100940000E942903CE0109960E942903EEA0FFA070
:1009500017FF2BC086E090E00E94D40A8C01BE01F4
:100960006F5E7F4F0E94F302D7018D919C9111978A
:10097000F80191838083F382E282892B89F41093BA
:10098000020200930102F7011183008380910502A6
:10099000909106020196909306028093050253CF30
:1009A000ED91FC9113830283EECF87014CCF0F931F
:1009B0001F93CF93DF9300D000D000D0CDB7DEB728
:1009C0008C016BE172E0CE0101960E94E102B80158
:1009D000CE0101960E9490028C0141E050E068E156
:1009E00071E00E943F02811103C0C8010E947E0293
:1009F000B8018BE192E00E94CA02CE0101960E94EA
:100A0000290326960FB6F894DEBF0FBECDBFDF9147
:100A1000CF911F910F9108950F931F93CF93DF9361
:100A200000D000D000D0CDB7DEB7EBEBF0E0849182
:100A3000E7EAF0E00491E3E9F0E01491112381F09A
:100A400081110E949001E12FF0E0EE0FFF1FE859A5
:100A5000FF4FA591B491EC91E0236AE171E011F4AC
:100A600068E271E0CE0101960E941803CE01019662
:100A70000E94D704CE0101960E94290326960FB644
:100A8000F894DEBF0FBECDBFDF91CF911F910F91C4
:100A90000895CF93C1E083E691E00E94EB00892B9B
:100AA00009F4EBC080910A0290910B02892B09F0A6
:100AB0004EC02FB7F89480915F0190916001A09192
:100AC0006101B09162012FBF8093210290932202B5
:100AD000A0932302B09324028FE092E00E94C4020C
:100AE00083E691E00E94C900682F80910A029091EC
:100AF0000B029C012F5F3F4F30930B0220930A02A1
:100B00008330910508F0B3C051E0663609F450E037
:100B10002430310519F441E0653609F440E0511103
:100B200003C0442309F456C010920B0210920A022B
:100B300010920D0210920C028FE092E00E94C4020B
:100B400085E192E00E94C40210920E02A4CF80912F
:100B5000210290912202A0912302B0912402845D8F
:100B60009E4FAF4FBF4F2FB7F89440915F01509108
:100B7000600160916101709162012FBF8417950738
:100B8000A607B70708F0ACCF85E192E00E94C40247
:100B900010920B0210920A0210920D0210920C0297
:100BA0008FE092E00E94C40210920E022FB7F894D8
:100BB00080915F0190916001A0916101B09162010B
:100BC0002FBF8093210290932202A0932302B0931F
:100BD000240286CF0497029710F510920E0285E149
:100BE00092E00E946B0280910A0290910B0206979C
:100BF00009F051CF40E150E070E060E080911502D3
:100C0000909116020E9428096A5F7F4F70930D022F
:100C100060930C0285E192E00E94C4023CCF273031
:100C2000310508F438CF80910C0290910D022817FD
:100C3000390738F410920E028FE092E00E946B02A6
:100C40002ACF90930B0280930A02892B09F423CFB9
:100C50008FE092E00E946B0210920B0210920A0247
:100C600010920D0210920C02C0930E0214CF243089
:100C7000310509F0AFCF50E04ECFCF9108950E94DB
:100C8000F70081110C94490508951F920F920FB639
:100C90000F9211242F933F934F935F936F937F9302
:100CA0008F939F93AF93BF93EF93FF9383E691E06E
:100CB0000E940101FF91EF91BF91AF919F918F91A0
:100CC0007F916F915F914F913F912F910F900FBE48
:100CD0000F901F9018951F920F920FB60F9211242C
:100CE0002F938F939F93EF93FF93E0917301F09174
:100CF00074018081E0917901F0917A0182FD1BC03D
:100D0000908180917C018F5F8F7320917D0182178C
:100D100041F0E0917C01F0E0ED59FE4F958F80931A
:100D20007C01FF91EF919F918F912F910F900FBEBA
:100D30000F901F9018958081F4CF1F920F920FB6DD
:100D40000F9211242F933F938F939F93AF93BF9351
:100D500080915F0190916001A0916101B091620169
:100D600030915E0123E0230F2D3758F50196A11D28
:100D7000B11D20935E0180935F0190936001A09369
:100D80006101B093620180915A0190915B01A09141
:100D90005C01B0915D010196A11DB11D80935A01C6
:100DA00090935B01A0935C01B0935D01BF91AF9103
:100DB0009F918F913F912F910F900FBE0F901F9099
:100DC000189526E8230F0296A11DB11DD2CFCF930F
:100DD000DF93E3E6F1E01382128288EE93E0A0E075
:100DE000B0E084839583A683B7838AE091E0918302
:100DF000808385EC90E09587848784EC90E09787EA
:100E0000868780EC90E0918B808B81EC90E0938BD7
:100E1000828B82EC90E0958B848B86EC90E0978BB4
:100E2000868B118E128E138E148EC0E0D2E01E823D
:100E30001D8286E090E00E94D40AFC01118210829B
:100E400013821282158214829A8389839C838B83F6
:100E50008AEE92E09987888766E371E08FE092E0FE
:100E60000E94180366E371E085E192E00E94180396
:100E700066E371E08BE192E0DF91CF910C9418036F
:100E8000CF93DF93CDB7DEB765970FB6F894DEBF8B
:100E90000FBECDBF789484B5826084BD84B5816077
:100EA00084BD85B5826085BD85B5816085BD809135
:100EB0006E00816080936E001092810080918100AD
:100EC00082608093810080918100816080938100A5
:100ED000809180008160809380008091B100846067
:100EE0008093B1008091B00081608093B0008091C8
:100EF0007A00846080937A0080917A008260809387
:100F00007A0080917A00816080937A0080917A00E3
:100F1000806880937A001092C100E7EAF0E02491A3
:100F2000E3E9F0E08491882399F090E0880F991F1D
:100F3000FC01EE58FF4FA591B491FC01E458FF4F1E
:100F4000859194918FB7F894EC91E22BEC938FBF3D
:100F500067E371E0CE0101960E941803BE016F5F46
:100F60007F4F80E092E00E949A0324EE31E0DC01A2
:100F70002D933C93CE0101960E9429036DE371E00D
:100F8000CE0101960E941803BE016F5F7F4F80E083
:100F900092E00E949A0327EE31E0FC013183208326
:100FA000CE0101960E9429038CE095E090932602E1
:100FB000809325026FEF70E08FE092E00E941702AD
:100FC00085E192E00E94C4028FE092E00E94C40298
:100FD0008BE192E00E94C40210920E0210920D0268
:100FE00010920C0210920B0210920A02109221022F
:100FF000109222021092230210922402E0917301B7
:10100000F091740182E08083E0916F01F0917001B2
:101010001082E0917101F09172018FEC8083109247
:101020007B01E0917701F091780186E08083E09187
:101030007501F0917601808180618083E091750176
:10104000F0917601808188608083E0917501F09154
:101050007601808180688083E0917501F09176014E
:1010600080818F7D808380E5C82E81E0D82E93E03B
:10107000E92E8E010D5E1F4F80910E0210920E021E
:10108000882309F46AC06FE072E0CE0101960E94E5
:10109000E1028D819E81892B51F064E471E08981A8
:1010A0009A810E94BF0CFF24F394892B09F0F12C44
:1010B000CE0101960E942903FF2009F456C0E09159
:1010C0002502F091260209956BE172E0CE010D96A2
:1010D0000E94E1028A898F9389898F93DF92CF9250
:1010E0001F92EF921F930F930E94CF0CB801CE0175
:1010F00007960E94180365E571E0CE0101960E94F3
:101100001803BE01695F7F4FCE0101960E949002D5
:10111000BE01635F7F4F0E949002DC0114964D91E7
:101120005C9115976D917C9183E691E00E948D0012
:10113000CE0101960E942903CE0107960E94290341
:10114000CE010D960E9429038BE192E00E94C40219
:101150000FB6F894DEBF0FBECDBF0E94F700882304
:1011600009F48ACF0E94490587CF6FE072E0CE0173
:1011700001960E94E102BE016F5F7F4F80E092E026
:101180000E949A03DC01ED91FC910995CE01019634
:101190000E942903E2CFCF93DF938BE192E00E947C
:1011A000290385E192E00E9429038FE092E00E94EA
:1011B0002903E0910102F0910202809105029091D1
:1011C0000602892B71F10280F381E02DF093020277
:1011D000E09301020190F081E02DC481D581209738
:1011E00031F0CE010E942903CE010E94700BE091E4
:1011F0000102F091020280819181009711F00E941A
:10120000700BE0910102F091020211821082809134
:1012100005029091060201979093060280930502C1
:10122000C8CFC481D581209731F0CE010E94290317
:10123000CE010E94700B80910102909102020097F2
:1012400021F0DF91CF910C94700BDF91CF91089535
:10125000B0E0A0E0EEE2F9E00C94890A5C016B01D9
:101260007A016115710519F0FB0191838083E11406
:10127000F10451F0C7010297839730F040E030E06D
:1012800020E090E072C05E01E5012196F501108139
:10129000812F90E00E943F0A892BA9F71D3201F5AA
:1012A0002196F501118101E0E114F10409F4DAC09D
:1012B000F0E1EF16F10409F082C0103359F488818F
:1012C0008F7D883509F076C0198122960260F0E1A1
:1012D000EF2EF12C812C912CA12C88E0B82E8CC003
:1012E0001B3221F4E5012296F501118100E0DCCFEB
:1012F000EAE0EE16F10409F4BBC0F0E1EF16F104E8
:1013000009F06DC0E7CF78E0E72EF12C812C912C0D
:10131000A12C60E1B62E70C03FE9310F3A3128F4BC
:1013200039EA332E80C021E09AC0302F3170C114C9
:10133000D10431F0222309F12197F601D183C08332
:1013400027FF21C060E070E080E090E8311104C028
:101350006FEF7FEF8FEF9FE722E230E030932802BC
:1013600020932702462F372F282F642F732F822F89
:10137000CDB7DEB7E1E10C94A50A01FF04C02297C6
:10138000F601D183C083332341F090958095709509
:1013900061957F4F8F4F9F4FE5CF97FFE3CF82E25D
:1013A00090E090932802809327026FEF7FEF8FEFFA
:1013B0009FE7D8CF10E3E114F10409F4A4CF28E0AB
:1013C000E216F10409F4A2CF0CF092CF812C912CFB
:1013D000A12CE0E4BE2E82E0E816F10469F060E0A2
:1013E00070E080E090E897010F2C000C440B550B47
:1013F0000E945B0A49015A0120E060E070E0CB01E5
:1014000027010F2C000C66087708FE0150ED352EE1
:10141000310E39E0331540F43FEB310F3A3108F02B
:101420007BCF49EC342E310E3E141F040CF07DCFDF
:1014300027FD15C086169706A806B90678F0A30101
:1014400092010E944B0A630D711D811D911D613037
:101450007105810520E8920708F465CF2FEF2196EA
:101460001081D3CF103309F42ACF2AE0E22EF12CD9
:101470009CEC892E982CA82C9CE0B92EBDCF911104
:101480000C94480A803219F089508550C8F70895A5
:10149000992788270895DB018F939F930E947D0AE7
:1014A000BF91AF91A29F800D911DA39F900DB29F00
:1014B000900D11240895A1E21A2EAA1BBB1BFD0159
:1014C0000DC0AA1FBB1FEE1FFF1FA217B307E40723
:1014D000F50720F0A21BB30BE40BF50B661F771F7B
:1014E000881F991F1A9469F760957095809590955B
:1014F0009B01AC01BD01CF0108950E94BF0AA59FC9
:10150000900DB49F900DA49F800D911D11240895FE
:101510002F923F924F925F926F927F928F929F9203
:10152000AF92BF92CF92DF92EF92FF920F931F93F1
:10153000CF93DF93CDB7DEB7CA1BDB0B0FB6F894A2
:10154000DEBF0FBECDBF09942A88398848885F84E2
:101550006E847D848C849B84AA84B984C884DF8053
:10156000EE80FD800C811B81AA81B981CE0FD11D37
:101570000FB6F894DEBF0FBECDBFED010895A29F58
:10158000B001B39FC001A39F700D811D1124911D57
:10159000B29F700D811D1124911D0895EE0FFF1F44
:1015A0000590F491E02D09940F931F93CF93DF934F
:1015B0008230910510F482E090E0E0912B02F091EE
:1015C0002C0230E020E0B0E0A0E0309799F4211543
:1015D000310509F44AC0281B390B24303105D8F5F0
:1015E0008A819B816115710589F1FB019383828357
:1015F000FE0111C0408151810281138148175907B2
:10160000E0F04817590799F4109761F012960C937F
:10161000129713961C933296CF01DF91CF911F91B1
:101620000F91089500932B0210932C02F4CF2115F3
:10163000310551F04217530738F0A901DB019A0137
:10164000BD01DF01F801C1CFEF01F9CF90932C026A
:1016500080932B02CDCFFE01E20FF31F8193919374
:101660002250310939832883D7CF20912902309124
:101670002A02232B41F4209102013091030130937F
:101680002A022093290220910001309101012115A5
:10169000310541F42DB73EB7409104015091050149
:1016A000241B350BE0912902F0912A02E217F3077F
:1016B000A0F42E1B3F0B2817390778F0AC014E5FC2
:1016C0005F4F2417350748F04E0F5F1F50932A02D3
:1016D00040932902819391939FCFF0E0E0E09CCF6B
:1016E000CF93DF930097E9F0FC01329713821282C7
:1016F000A0912B02B0912C02ED0130E020E0109778
:10170000A1F420813181820F931F20912902309111
:101710002A022817390709F061C0F0932A02E093E2
:101720002902DF91CF910895EA01CE17DF07E8F58E
:101730004A815B819E0141155105B1F7E901FB83A7
:10174000EA8349915991C40FD51FEC17FD0761F445
:10175000808191810296840F951FE9019983888386
:10176000828193819B838A83F0E0E0E012968D91E1
:101770009C9113970097B9F52D913C911197CD014C
:101780000296820F931F2091290230912A02281776
:10179000390739F6309751F510922C0210922B022E
:1017A000B0932A02A0932902BCCFD383C283408185
:1017B0005181840F951FC817D90761F44E5F5F4FA1
:1017C00088819981480F591F518340838A819B8169
:1017D000938382832115310509F0B0CFF0932C0259
:1017E000E0932B029ECFFD01DC01C0CF1382128259
:1017F000D7CFB0E0A0E0EFEFFBE00C948A0A8C01B9
:10180000009751F4CB010E94D40A8C01C801CDB7D6
:10181000DEB7E0E10C94A60AFC01E60FF71F9C017D
:1018200022503109E217F30708F49DC0D901CD9188
:10183000DC911197C617D70798F0C530D10530F362
:10184000CE0104978617970708F3C61BD70B22977C
:10185000C193D1936D937C93CF010E94700BD6CF2F
:101860005B01AC1ABD0A4C018C0E9D1EA0912B028F
:10187000B0912C02512C412CF12CE12C109731F518
:101880008091290290912A028815990509F05CC07F
:101890004616570608F058C080910001909101014A
:1018A000009741F48DB79EB7409104015091050116
:1018B000841B950BE817F90708F055C0F0932A022E
:1018C000E0932902F90171836083A0CF8D919C91EF
:1018D000119712966C90129713967C901397A815F7
:1018E000B90559F56C0142E0C40ED11CCA14DB04E1
:1018F00020F1AC014A195B09DA011296159780F0C4
:101900006282738251834083D9016D937C93E11489
:10191000F10471F0D7011396FC93EE93129776CFF2
:1019200022968C0F9D1FF90191838083F301EFCFE5
:10193000F0932C02E0932B0269CF4816590608F465
:101940002C017D01D3019ACFCB010E94D40A7C01E6
:10195000009749F0AE01B8010E94B60CC8010E9480
:10196000700B870153CF10E000E050CFFB01DC018A
:1019700002C001900D9241505040D8F70895FB01EC
:10198000DC018D91019080190110D9F3990B089514
:10199000FB01DC0101900D920020E1F70895AEE01B
:1019A000B0E0E5EDFCE00C94960A0D891E898F8964
:1019B000988D26E02C831A83098397FF02C080E06C
:1019C00090E801979E838D83AE01455E5F4F698DE0
:1019D0007A8DCE0101960E94FF0C4D815E8157FDEC
:1019E0000AC02F813885421753070CF49A01020F61
:1019F000131FF80110822E96E4E00C94B20AABE0BB
:101A0000B0E0E5E0FDE00C94880A7C013B018A012E
:101A1000FC0117821682838181FFC8C1CE01019625
:101A20005C01F7019381F30193FD859193FF81910F
:101A30003F01882309F453C1853239F493FD859120
:101A400093FF81913F01853229F4B70190E00E9414
:101A5000EF0EE7CF912C212C312CFFE1F31538F05C
:101A60008B3211F190F4803209F1833229F137FC85
:101A70003CC020ED280F2A3050F536FE20C08AE009
:101A8000989E200D1124922E06C08D3291F0803345
:101A900071F7689430F8F30193FD859193FF81917C
:101AA0003F018111DACF21C0689431F8689432F88F
:101AB000F2CF689433F8EFCF689434F8ECCFEAE0D3
:101AC0002E9E200D1124222E689435F8E4CF8E32FC
:101AD00029F436FC04C1689436F8DDCF8C3619F44D
:101AE000689437F8D8CF8836B1F2982F9F7D9554F7
:101AF0009330E0F08336A1F18337C1F1833509F0EB
:101B000063C02801F2E04F0E511CF801C080D18063
:101B1000692D70E036FC02C06FEF7FEFC6010E94B6
:101B2000D90E4C01689437F882010AC00C5F1F4F30
:101B3000FFE3F98388248394912C6501E89437F8B6
:101B400033FE2DC0522C8114910471F5552009F4F7
:101B500068CFB70180E290E00E94EF0E5A94F6CF72
:101B6000F801808189830E5F1F4FE4CF2801F2E0E6
:101B70004F0E511CF801C080D180692D70E036FCF9
:101B800002C06FEF7FEFC6010E94E40E4C0182019C
:101B9000D5CFB70180E290E00E94EF0E2A9428147E
:101BA000190409F0B0F7CECFF60137FC859137FE66
:101BB00081916F01B70190E00E94EF0E51105A948D
:101BC000F1E08F1A9108BFCF843619F0893609F0F9
:101BD00077C0F80137FE6BC060817181828193818B
:101BE0000C5F1F4FF32DFF763F2E97FF09C0909596
:101BF0008095709561957F4F8F4F9F4F689437F810
:101C00002AE030E0A5010E941F0FC82ECA188C2CB4
:101C1000432C36FE0CC0E89440F8C91440F434FE5E
:101C200005C032FC03C0F32DFE7E4F2E892C44FEEE
:101C300095C0FE01EC0DF11D8081803309F087C055
:101C4000242D297E422E842D8870582E43FC95C069
:101C500040FE8FC09C2C821418F42C0C922C9818E7
:101C600044FE91C0B70180E390E00E94EF0E42FE77
:101C700009C088E790E041FE02C088E590E0B70126
:101C80000E94EF0EC91408F48AC0CA94D12C9FEFA9
:101C9000C91AD90ACA0CDB1CF60182916F01B7017F
:101CA00090E00E94EF0EAC14BD04B1F74FCF6081FD
:101CB0007181072E000C880B990B0E5F1F4F92CF7E
:101CC000D32CE894D4F82AE030E0853739F1232D7D
:101CD000297FD22E8F3601F148F48835A9F0F7011B
:101CE000868197812B96E2E10C94A40A803749F013
:101CF0008837A9F7D4FE02C06894D2F820E130E01A
:101D00000DC06894D4F8F6CF34FE03C0822F8660ED
:101D1000D82E20E132E002C028E030E0F801D7FE02
:101D20000FC060817181828193810C5F1F4FA5017B
:101D30000E941F0FC82ECA183D2CE89437F867CFB1
:101D40006081718190E080E00E5F1F4FF0CF42FC18
:101D500002C0839478CF8394839475CF842D867842
:101D600009F471CFF6CFB70180E290E00E94EF0E48
:101D700083948214C0F3512C73CF522C58188214C0
:101D800008F46ECFF8CF842D867809F47BCF8BE2F0
:101D900041FE80E247FC8DE2B70190E071CFB701D0
:101DA00080E390E00E94EF0E9A946CCF8FEF9FEF4C
:101DB00099CFFC010590615070400110D8F78095D3
:101DC00090958E0F9F1F0895FC0161507040019007
:101DD0000110D8F7809590958E0F9F1F08950F934F
:101DE0001F93CF93DF93182F092FEB018B8181FD78
:101DF00009C01FEF0FEF812F902FDF91CF911F911F
:101E00000F91089582FF14C02E813F818C819D81A6
:101E1000281739073CF4E881F981CF0101969983AD
:101E2000888310838E819F8101969F838E83E3CF69
:101E3000E885F985812F0995892BA1F3DACFFA017D
:101E4000AA27283051F1203181F1E8946F936E7FF9
:101E50006E5F7F4F8F4F9F4FAF4FB1E03ED0B4E0EA
:101E60003CD0670F781F891F9A1FA11D680F791F2B
:101E70008A1F911DA11D6A0F711D811D911DA11D3C
:101E800020D009F468943F912AE0269F112430194C
:101E9000305D3193DEF6CF010895462F4770405DE7
:101EA0004193B3E00FD0C9F7F6CF462F4F70405D96
:101EB0004A3318F0495D31FD4052419302D0A9F7F1
:101EC000EACFB4E0A6959795879577956795BA95EB
:101ED000C9F700976105710508959B01AC010A2EB1
:101EE00006945795479537952795BA95C9F7620F88
:101EF000731F841F951FA01D089510E0C2E6D0E057
:101F000004C0FE010E94CE0A2196C336D107C9F74C
:041F1000F894FFCF73
:101F140000002D0280000000000023018D00BA00A3
:101F24007001EB00C900DD003B006C656453746113
:101F3400747573286F6E29006C65645374617475CD
:101F440073286F666629006C65644F6E006C656467
:101F54004F666600676574506572636570747300DC
:0A1F640025303258006666666500FD
:00000001FF
